{
  "_format": "hh-sol-artifact-1",
  "contractName": "MerkleAirdrop",
  "sourceName": "contracts/MerkelAirdrop.sol",
  "abi": [
    {
      "inputs": [
        {
          "internalType": "address",
          "name": "_token",
          "type": "address"
        },
        {
          "internalType": "bytes32",
          "name": "_merkleRoot",
          "type": "bytes32"
        },
        {
          "internalType": "address",
          "name": "_baycContract",
          "type": "address"
        }
      ],
      "stateMutability": "nonpayable",
      "type": "constructor"
    },
    {
      "inputs": [],
      "name": "BAYC",
      "outputs": [
        {
          "internalType": "contract IERC721",
          "name": "",
          "type": "address"
        }
      ],
      "stateMutability": "view",
      "type": "function"
    },
    {
      "inputs": [],
      "name": "BAYC_CONTRACT",
      "outputs": [
        {
          "internalType": "address",
          "name": "",
          "type": "address"
        }
      ],
      "stateMutability": "view",
      "type": "function"
    },
    {
      "inputs": [
        {
          "internalType": "uint256",
          "name": "amount",
          "type": "uint256"
        },
        {
          "internalType": "bytes32[]",
          "name": "merkleProof",
          "type": "bytes32[]"
        }
      ],
      "name": "claimAirdrop",
      "outputs": [],
      "stateMutability": "nonpayable",
      "type": "function"
    },
    {
      "inputs": [
        {
          "internalType": "address",
          "name": "",
          "type": "address"
        }
      ],
      "name": "hasClaimed",
      "outputs": [
        {
          "internalType": "bool",
          "name": "",
          "type": "bool"
        }
      ],
      "stateMutability": "view",
      "type": "function"
    },
    {
      "inputs": [],
      "name": "merkleRoot",
      "outputs": [
        {
          "internalType": "bytes32",
          "name": "",
          "type": "bytes32"
        }
      ],
      "stateMutability": "view",
      "type": "function"
    },
    {
      "inputs": [
        {
          "internalType": "address",
          "name": "user",
          "type": "address"
        }
      ],
      "name": "ownsBAYC",
      "outputs": [
        {
          "internalType": "bool",
          "name": "",
          "type": "bool"
        }
      ],
      "stateMutability": "view",
      "type": "function"
    },
    {
      "inputs": [],
      "name": "token",
      "outputs": [
        {
          "internalType": "contract IERC20",
          "name": "",
          "type": "address"
        }
      ],
      "stateMutability": "view",
      "type": "function"
    }
  ],
  "bytecode": "0x608060405273bc4ca0eda7647a8ab7c2061c2e118a18a936f13d600460006101000a81548173ffffffffffffffffffffffffffffffffffffffff021916908373ffffffffffffffffffffffffffffffffffffffff1602179055503480156200006657600080fd5b5060405162000ebc38038062000ebc83398181016040528101906200008c9190620001c2565b826000806101000a81548173ffffffffffffffffffffffffffffffffffffffff021916908373ffffffffffffffffffffffffffffffffffffffff1602179055508160028190555080600160006101000a81548173ffffffffffffffffffffffffffffffffffffffff021916908373ffffffffffffffffffffffffffffffffffffffff1602179055505050506200021e565b600080fd5b600073ffffffffffffffffffffffffffffffffffffffff82169050919050565b60006200014f8262000122565b9050919050565b620001618162000142565b81146200016d57600080fd5b50565b600081519050620001818162000156565b92915050565b6000819050919050565b6200019c8162000187565b8114620001a857600080fd5b50565b600081519050620001bc8162000191565b92915050565b600080600060608486031215620001de57620001dd6200011d565b5b6000620001ee8682870162000170565b93505060206200020186828701620001ab565b9250506040620002148682870162000170565b9150509250925092565b610c8e806200022e6000396000f3fe608060405234801561001057600080fd5b506004361061007d5760003560e01c80639582b6e51161005b5780639582b6e5146100ec578063a30d21da1461010a578063bc42a6f714610128578063fc0c546a146101585761007d565b80630bcae1ac146100825780632eb4a7ab1461009e57806373b2e80e146100bc575b600080fd5b61009c600480360381019061009791906106cb565b610176565b005b6100a6610440565b6040516100b39190610744565b60405180910390f35b6100d660048036038101906100d191906107bd565b610446565b6040516100e39190610805565b60405180910390f35b6100f4610466565b604051610101919061087f565b60405180910390f35b61011261048c565b60405161011f91906108a9565b60405180910390f35b610142600480360381019061013d91906107bd565b6104b2565b60405161014f9190610805565b60405180910390f35b610160610559565b60405161016d91906108e5565b60405180910390f35b600360003373ffffffffffffffffffffffffffffffffffffffff1673ffffffffffffffffffffffffffffffffffffffff16815260200190815260200160002060009054906101000a900460ff1615610203576040517f08c379a00000000000000000000000000000000000000000000000000000000081526004016101fa9061095d565b60405180910390fd5b61020c336104b2565b61024b576040517f08c379a0000000000000000000000000000000000000000000000000000000008152600401610242906109c9565b60405180910390fd5b60003384604051602001610260929190610a52565b6040516020818303038152906040528051906020012090506102c6838380806020026020016040519081016040528093929190818152602001838360200280828437600081840152601f19601f820116905080830192505050505050506002548361057d565b610305576040517f08c379a00000000000000000000000000000000000000000000000000000000081526004016102fc90610aca565b60405180910390fd5b6001600360003373ffffffffffffffffffffffffffffffffffffffff1673ffffffffffffffffffffffffffffffffffffffff16815260200190815260200160002060006101000a81548160ff02191690831515021790555060008054906101000a900473ffffffffffffffffffffffffffffffffffffffff1673ffffffffffffffffffffffffffffffffffffffff1663a9059cbb33866040518363ffffffff1660e01b81526004016103b8929190610af9565b6020604051808303816000875af11580156103d7573d6000803e3d6000fd5b505050506040513d601f19601f820116820180604052508101906103fb9190610b4e565b61043a576040517f08c379a000000000000000000000000000000000000000000000000000000000815260040161043190610bc7565b60405180910390fd5b50505050565b60025481565b60036020528060005260406000206000915054906101000a900460ff1681565b600160009054906101000a900473ffffffffffffffffffffffffffffffffffffffff1681565b600460009054906101000a900473ffffffffffffffffffffffffffffffffffffffff1681565b600080600160009054906101000a900473ffffffffffffffffffffffffffffffffffffffff1673ffffffffffffffffffffffffffffffffffffffff166370a08231846040518263ffffffff1660e01b815260040161051091906108a9565b602060405180830381865afa15801561052d573d6000803e3d6000fd5b505050506040513d601f19601f820116820180604052508101906105519190610bfc565b119050919050565b60008054906101000a900473ffffffffffffffffffffffffffffffffffffffff1681565b60008261058a8584610594565b1490509392505050565b60008082905060005b84518110156105d9576105ca828683815181106105bd576105bc610c29565b5b60200260200101516105e4565b9150808060010191505061059d565b508091505092915050565b60008183106105fc576105f7828461060f565b610607565b610606838361060f565b5b905092915050565b600082600052816020526040600020905092915050565b600080fd5b600080fd5b6000819050919050565b61064381610630565b811461064e57600080fd5b50565b6000813590506106608161063a565b92915050565b600080fd5b600080fd5b600080fd5b60008083601f84011261068b5761068a610666565b5b8235905067ffffffffffffffff8111156106a8576106a761066b565b5b6020830191508360208202830111156106c4576106c3610670565b5b9250929050565b6000806000604084860312156106e4576106e3610626565b5b60006106f286828701610651565b935050602084013567ffffffffffffffff8111156107135761071261062b565b5b61071f86828701610675565b92509250509250925092565b6000819050919050565b61073e8161072b565b82525050565b60006020820190506107596000830184610735565b92915050565b600073ffffffffffffffffffffffffffffffffffffffff82169050919050565b600061078a8261075f565b9050919050565b61079a8161077f565b81146107a557600080fd5b50565b6000813590506107b781610791565b92915050565b6000602082840312156107d3576107d2610626565b5b60006107e1848285016107a8565b91505092915050565b60008115159050919050565b6107ff816107ea565b82525050565b600060208201905061081a60008301846107f6565b92915050565b6000819050919050565b600061084561084061083b8461075f565b610820565b61075f565b9050919050565b60006108578261082a565b9050919050565b60006108698261084c565b9050919050565b6108798161085e565b82525050565b60006020820190506108946000830184610870565b92915050565b6108a38161077f565b82525050565b60006020820190506108be600083018461089a565b92915050565b60006108cf8261084c565b9050919050565b6108df816108c4565b82525050565b60006020820190506108fa60008301846108d6565b92915050565b600082825260208201905092915050565b7f41697264726f7020616c726561647920636c61696d6564000000000000000000600082015250565b6000610947601783610900565b915061095282610911565b602082019050919050565b600060208201905081810360008301526109768161093a565b9050919050565b7f6d757374206f776e2042415943204e4654000000000000000000000000000000600082015250565b60006109b3601183610900565b91506109be8261097d565b602082019050919050565b600060208201905081810360008301526109e2816109a6565b9050919050565b60008160601b9050919050565b6000610a01826109e9565b9050919050565b6000610a13826109f6565b9050919050565b610a2b610a268261077f565b610a08565b82525050565b6000819050919050565b610a4c610a4782610630565b610a31565b82525050565b6000610a5e8285610a1a565b601482019150610a6e8284610a3b565b6020820191508190509392505050565b7f496e76616c6964204d65726b6c652050726f6f66000000000000000000000000600082015250565b6000610ab4601483610900565b9150610abf82610a7e565b602082019050919050565b60006020820190508181036000830152610ae381610aa7565b9050919050565b610af381610630565b82525050565b6000604082019050610b0e600083018561089a565b610b1b6020830184610aea565b9392505050565b610b2b816107ea565b8114610b3657600080fd5b50565b600081519050610b4881610b22565b92915050565b600060208284031215610b6457610b63610626565b5b6000610b7284828501610b39565b91505092915050565b7f546f6b656e207472616e73666572206661696c65640000000000000000000000600082015250565b6000610bb1601583610900565b9150610bbc82610b7b565b602082019050919050565b60006020820190508181036000830152610be081610ba4565b9050919050565b600081519050610bf68161063a565b92915050565b600060208284031215610c1257610c11610626565b5b6000610c2084828501610be7565b91505092915050565b7f4e487b7100000000000000000000000000000000000000000000000000000000600052603260045260246000fdfea2646970667358221220a19b2a3b7856d5f3a27e46c4a048379d2c2499c4ddd7070742304058a618d47764736f6c63430008180033",
  "linkReferences": {},
  "deployedLinkReferences": {}
}